{"abi":[{"type":"function","name":"lastSender","inputs":[],"outputs":[{"name":"","type":"address","internalType":"address"}],"stateMutability":"view"},{"type":"function","name":"recordSender","inputs":[],"outputs":[],"stateMutability":"nonpayable"}],"bytecode":{"object":"0x608060405234801561001057600080fd5b5060dd8061001f6000396000f3fe6080604052348015600f57600080fd5b506004361060325760003560e01c8063256fec88146037578063f1627ecf146065575b600080fd5b6000546049906001600160a01b031681565b6040516001600160a01b03909116815260200160405180910390f35b607b600080546001600160a01b03191633179055565b00fea2646970667358221220a9537b4f5c4c929b675c527aca5af365699c5a73c29fd46f261c272b7882c28764736f6c63782c302e382e32342d646576656c6f702e323032342e342e31322b636f6d6d69742e63336166303263322e6d6f64005d","linkReferences":{}},"methodIdentifiers":{"lastSender()":"256fec88","recordSender()":"f1627ecf"},"id":2}