{"abi":[{"type":"function","name":"sendMessage","inputs":[{"name":"message","type":"string","internalType":"string"}],"outputs":[],"stateMutability":"nonpayable"},{"type":"event","name":"Message","inputs":[{"name":"sender","type":"address","indexed":false,"internalType":"address"},{"name":"message","type":"string","indexed":false,"internalType":"string"}],"anonymous":false}],"bytecode":{"object":"0x608060405234801561001057600080fd5b50610196806100206000396000f3fe608060405234801561001057600080fd5b506004361061002b5760003560e01c8063469c811014610030575b600080fd5b61004361003e366004610084565b610045565b005b7f811f7cff0a3374ff67cccc3726035d34ba70410e0256818a891e4d6acc01d88e338383604051610078939291906100f6565b60405180910390a15050565b6000806020838503121561009757600080fd5b823567ffffffffffffffff808211156100af57600080fd5b818501915085601f8301126100c357600080fd5b8135818111156100d257600080fd5b8660208285010111156100e457600080fd5b60209290920196919550909350505050565b6001600160a01b03841681526040602082018190528101829052818360608301376000818301606090810191909152601f909201601f191601019291505056fea264697066735822122076a82ab83f378e90776b8533b9225d1e4ee25e7763feab9639fe3508d9cec53864736f6c63782c302e382e32342d646576656c6f702e323032342e342e31322b636f6d6d69742e63336166303263322e6d6f64005d","linkReferences":{}},"methodIdentifiers":{"sendMessage(string)":"469c8110"},"id":2}