{"abi":[{"type":"function","name":"lastSender","inputs":[],"outputs":[{"name":"","type":"address","internalType":"address"}],"stateMutability":"view"},{"type":"function","name":"recordSender","inputs":[],"outputs":[],"stateMutability":"nonpayable"}],"bytecode":{"object":"0x608060405234801561001057600080fd5b5060d88061001f6000396000f3fe6080604052348015600f57600080fd5b506004361060325760003560e01c8063256fec88146037578063f1627ecf146065575b600080fd5b6000546049906001600160a01b031681565b6040516001600160a01b03909116815260200160405180910390f35b607b600080546001600160a01b03191633179055565b00fea264697066735822122049551feb180f5e5eadb2436dbceb4b72918c3ddab0adc2c72581d451a7d256cc64736f6c637827302e382e32342d646576656c6f702e323032342e352e332b636f6d6d69742e31383761313738610058","linkReferences":{}},"methodIdentifiers":{"lastSender()":"256fec88","recordSender()":"f1627ecf"},"id":2}