{"abi":[{"type":"function","name":"getDigest","inputs":[{"name":"commit","type":"bytes32","internalType":"bytes32"}],"outputs":[{"name":"digest","type":"bytes32","internalType":"bytes32"}],"stateMutability":"view"},{"type":"function","name":"sponsorCall","inputs":[{"name":"authority","type":"address","internalType":"address"},{"name":"commit","type":"bytes32","internalType":"bytes32"},{"name":"v","type":"uint8","internalType":"uint8"},{"name":"r","type":"bytes32","internalType":"bytes32"},{"name":"s","type":"bytes32","internalType":"bytes32"},{"name":"to","type":"address","internalType":"address"},{"name":"data","type":"bytes","internalType":"bytes"}],"outputs":[{"name":"success","type":"bool","internalType":"bool"}],"stateMutability":"pure"}],"bytecode":{"object":"0x608060405234801561001057600080fd5b506103af806100206000396000f3fe608060405234801561001057600080fd5b50600436106100365760003560e01c8063d089105b1461003b578063f9613ab214610063575b600080fd5b61004e61004936600461026d565b6100c2565b60405190151581526020015b60405180910390f35b6100b4610071366004610336565b604051600160fa1b602082015246602182015230604182015260618101829052600090608101604051602081830303815290604052805190602001209050919050565b60405190815260200161005a565b60006100d189898989896101ae565b6101195760405162461bcd60e51b8152602060048201526014602482015273105d5d1a1bdc9a5e985d1a5bdb8819985a5b195960621b60448201526064015b60405180910390fd5b61015b8484848080601f0160208091040260200160405190810160405280939291908181526020018383808284376000920182905250925082915061020e9050565b9050806101a25760405162461bcd60e51b815260206004820152601560248201527410d85b1b08195e1958dd5d1a5bdb8819985a5b1959605a1b6044820152606401610110565b98975050505050505050565b6000806101ba85610228565b60405160f89190911b6001600160f81b0319166020820152602181018590526041810184905260618101879052608101604051602081830303815290604052905080516020820188f6979650505050505050565b60008060008551602087016000878a88f795945050505050565b600060238210600181146102445760026023840306915061024b565b601c831491505b50919050565b80356001600160a01b038116811461026857600080fd5b919050565b60008060008060008060008060e0898b03121561028957600080fd5b61029289610251565b975060208901359650604089013560ff811681146102af57600080fd5b955060608901359450608089013593506102cb60a08a01610251565b925060c089013567ffffffffffffffff808211156102e857600080fd5b818b0191508b601f8301126102fc57600080fd5b81358181111561030b57600080fd5b8c602082850101111561031d57600080fd5b6020830194508093505050509295985092959890939650565b60006020828403121561034857600080fd5b503591905056fea2646970667358221220ced3f9b091e939a9581d5e49ad3e571b7783b6f6e668c5055d158af5e3c312de64736f6c63782c302e382e32342d646576656c6f702e323032342e342e31322b636f6d6d69742e63336166303263322e6d6f64005d","linkReferences":{}},"methodIdentifiers":{"getDigest(bytes32)":"f9613ab2","sponsorCall(address,bytes32,uint8,bytes32,bytes32,address,bytes)":"d089105b"},"id":1}