{"abi":[{"type":"function","name":"getDigest","inputs":[{"name":"commit","type":"bytes32","internalType":"bytes32"},{"name":"nonce","type":"uint256","internalType":"uint256"}],"outputs":[{"name":"digest","type":"bytes32","internalType":"bytes32"}],"stateMutability":"view"},{"type":"function","name":"sponsorCall","inputs":[{"name":"authority","type":"address","internalType":"address"},{"name":"v","type":"uint8","internalType":"uint8"},{"name":"r","type":"bytes32","internalType":"bytes32"},{"name":"s","type":"bytes32","internalType":"bytes32"},{"name":"to","type":"address","internalType":"address"},{"name":"data","type":"bytes","internalType":"bytes"}],"outputs":[{"name":"success","type":"bool","internalType":"bool"}],"stateMutability":"pure"}],"bytecode":{"object":"0x608060405234801561001057600080fd5b5061041e806100206000396000f3fe608060405234801561001057600080fd5b50600436106100365760003560e01c80635bc928a71461003b578063c85fa402146100a7575b600080fd5b610094610049366004610285565b604051600160fa1b6020820152466021820152604181018290523060618201526081810183905260009060a10160405160208183030381529060405280519060200120905092915050565b6040519081526020015b60405180910390f35b6100ba6100b53660046102c3565b6100ca565b604051901515815260200161009e565b6000808484846040516020016100e293929190610383565b60405160208183030381529060405280519060200120905061010789828a8a8a6101e4565b61014f5760405162461bcd60e51b8152602060048201526014602482015273105d5d1a1bdc9a5e985d1a5bdb8819985a5b195960621b60448201526064015b60405180910390fd5b6101918585858080601f016020809104026020016040519081016040528093929190818152602001838380828437600092018290525092508291506102449050565b9150816101d85760405162461bcd60e51b815260206004820152601560248201527410d85b1b08195e1958dd5d1a5bdb8819985a5b1959605a1b6044820152606401610146565b50979650505050505050565b6000806101f08561025c565b60405160f89190911b6001600160f81b0319166020820152602181018590526041810184905260618101879052608101604051602081830303815290604052905080516020820188f6979650505050505050565b6000806000855160208701868987f795945050505050565b600060238210600181146102785760026023840306915061027f565b601c831491505b50919050565b6000806040838503121561029857600080fd5b50508035926020909101359150565b80356001600160a01b03811681146102be57600080fd5b919050565b600080600080600080600060c0888a0312156102de57600080fd5b6102e7886102a7565b9650602088013560ff811681146102fd57600080fd5b95506040880135945060608801359350610319608089016102a7565b925060a088013567ffffffffffffffff8082111561033657600080fd5b818a0191508a601f83011261034a57600080fd5b81358181111561035957600080fd5b8b602082850101111561036b57600080fd5b60208301945080935050505092959891949750929550565b6001600160a01b03841681526040602082018190528101829052818360608301376000818301606090810191909152601f909201601f191601019291505056fea2646970667358221220ee001df4404e15d400e7d1b5fbbc7bf6d0bf06064b8bd7e42fc62a1a8717a45464736f6c637827302e382e32342d646576656c6f702e323032342e352e332b636f6d6d69742e31383761313738610058","linkReferences":{}},"methodIdentifiers":{"getDigest(bytes32,uint256)":"5bc928a7","sponsorCall(address,uint8,bytes32,bytes32,address,bytes)":"c85fa402"},"id":1}