{"abi":[{"type":"function","name":"getDigest","inputs":[{"name":"commit","type":"bytes32","internalType":"bytes32"},{"name":"nonce","type":"uint256","internalType":"uint256"}],"outputs":[{"name":"digest","type":"bytes32","internalType":"bytes32"}],"stateMutability":"view"},{"type":"function","name":"sponsorCall","inputs":[{"name":"authority","type":"address","internalType":"address"},{"name":"v","type":"uint8","internalType":"uint8"},{"name":"r","type":"bytes32","internalType":"bytes32"},{"name":"s","type":"bytes32","internalType":"bytes32"},{"name":"to","type":"address","internalType":"address"},{"name":"data","type":"bytes","internalType":"bytes"},{"name":"value","type":"uint256","internalType":"uint256"}],"outputs":[{"name":"success","type":"bool","internalType":"bool"}],"stateMutability":"pure"}],"bytecode":{"object":"0x608060405234801561001057600080fd5b50610428806100206000396000f3fe608060405234801561001057600080fd5b50600436106100365760003560e01c80635bc928a71461003b5780637fb86262146100a7575b600080fd5b610094610049366004610286565b604051600160fa1b6020820152466021820152604181018290523060618201526081810183905260009060a10160405160208183030381529060405280519060200120905092915050565b6040519081526020015b60405180910390f35b6100ba6100b53660046102c4565b6100ca565b604051901515815260200161009e565b6000808585856040516020016100e29392919061038d565b6040516020818303038152906040528051906020012090506101078a828b8b8b6101e5565b61014f5760405162461bcd60e51b8152602060048201526014602482015273105d5d1a1bdc9a5e985d1a5bdb8819985a5b195960621b60448201526064015b60405180910390fd5b6101918686868080601f016020809104026020016040519081016040528093929190818152602001838380828437600092018290525089935091506102459050565b9150816101d85760405162461bcd60e51b815260206004820152601560248201527410d85b1b08195e1958dd5d1a5bdb8819985a5b1959605a1b6044820152606401610146565b5098975050505050505050565b6000806101f18561025d565b60405160f89190911b6001600160f81b0319166020820152602181018590526041810184905260618101879052608101604051602081830303815290604052905080516020820188f6979650505050505050565b6000806000855160208701868987f795945050505050565b6000602382106001811461027957600260238403069150610280565b601c831491505b50919050565b6000806040838503121561029957600080fd5b50508035926020909101359150565b80356001600160a01b03811681146102bf57600080fd5b919050565b60008060008060008060008060e0898b0312156102e057600080fd5b6102e9896102a8565b9750602089013560ff811681146102ff57600080fd5b9650604089013595506060890135945061031b60808a016102a8565b935060a089013567ffffffffffffffff8082111561033857600080fd5b818b0191508b601f83011261034c57600080fd5b81358181111561035b57600080fd5b8c602082850101111561036d57600080fd5b60208301955080945050505060c089013590509295985092959890939650565b6001600160a01b03841681526040602082018190528101829052818360608301376000818301606090810191909152601f909201601f191601019291505056fea26469706673582212207a1cdb5e67ba3699d31dc33aa64894d0bcca05c543fe1f0a348a37a0b0dad93164736f6c637827302e382e32342d646576656c6f702e323032342e352e332b636f6d6d69742e31383761313738610058","linkReferences":{}},"methodIdentifiers":{"getDigest(bytes32,uint256)":"5bc928a7","sponsorCall(address,uint8,bytes32,bytes32,address,bytes,uint256)":"7fb86262"},"id":1}