{"abi":[{"type":"function","name":"getDigest","inputs":[{"name":"commit","type":"bytes32","internalType":"bytes32"}],"outputs":[{"name":"digest","type":"bytes32","internalType":"bytes32"}],"stateMutability":"view"},{"type":"function","name":"sponsorCall","inputs":[{"name":"authority","type":"address","internalType":"address"},{"name":"commit","type":"bytes32","internalType":"bytes32"},{"name":"v","type":"uint8","internalType":"uint8"},{"name":"r","type":"bytes32","internalType":"bytes32"},{"name":"s","type":"bytes32","internalType":"bytes32"},{"name":"to","type":"address","internalType":"address"},{"name":"data","type":"bytes","internalType":"bytes"}],"outputs":[{"name":"success","type":"bool","internalType":"bool"}],"stateMutability":"nonpayable"},{"type":"event","name":"CallExecuted","inputs":[{"name":"target","type":"address","indexed":true,"internalType":"address"},{"name":"value","type":"uint256","indexed":false,"internalType":"uint256"},{"name":"data","type":"bytes","indexed":false,"internalType":"bytes"}],"anonymous":false}],"bytecode":{"object":"0x608060405234801561001057600080fd5b5061042b806100206000396000f3fe608060405234801561001057600080fd5b50600436106100365760003560e01c8063d089105b1461003b578063f9613ab214610063575b600080fd5b61004e6100493660046102b3565b6100c2565b60405190151581526020015b60405180910390f35b6100b461007136600461037c565b604051600160fa1b602082015246602182015230604182015260618101829052600090608101604051602081830303815290604052805190602001209050919050565b60405190815260200161005a565b60006100d189898989896101f4565b6101195760405162461bcd60e51b8152602060048201526014602482015273105d5d1a1bdc9a5e985d1a5bdb8819985a5b195960621b60448201526064015b60405180910390fd5b61015b8484848080601f016020809104026020016040519081016040528093929190818152602001838380828437600092018290525092508291506102549050565b9050806101a25760405162461bcd60e51b815260206004820152601560248201527410d85b1b08195e1958dd5d1a5bdb8819985a5b1959605a1b6044820152606401610110565b836001600160a01b03167f7aa5ed2c76d4b9b3e8cbc2d86e798d468acf8cc22876dbfe0b62ea3180006c26600085856040516101e093929190610395565b60405180910390a298975050505050505050565b6000806102008561026e565b60405160f89190911b6001600160f81b0319166020820152602181018590526041810184905260618101879052608101604051602081830303815290604052905080516020820188f6979650505050505050565b60008060008551602087016000878a88f795945050505050565b6000602382106001811461028a57600260238403069150610291565b601c831491505b50919050565b80356001600160a01b03811681146102ae57600080fd5b919050565b60008060008060008060008060e0898b0312156102cf57600080fd5b6102d889610297565b975060208901359650604089013560ff811681146102f557600080fd5b9550606089013594506080890135935061031160a08a01610297565b925060c089013567ffffffffffffffff8082111561032e57600080fd5b818b0191508b601f83011261034257600080fd5b81358181111561035157600080fd5b8c602082850101111561036357600080fd5b6020830194508093505050509295985092959890939650565b60006020828403121561038e57600080fd5b5035919050565b83815260406020820152816040820152818360608301376000818301606090810191909152601f909201601f191601019291505056fea26469706673582212203141b217793c9d6278dbc44253cbb8771a24afdbf6d02268a0d7a9bbfc54f2da64736f6c63782c302e382e32342d646576656c6f702e323032342e342e31322b636f6d6d69742e63336166303263322e6d6f64005d","linkReferences":{}},"methodIdentifiers":{"getDigest(bytes32)":"f9613ab2","sponsorCall(address,bytes32,uint8,bytes32,bytes32,address,bytes)":"d089105b"},"id":1}