{"abi":[{"type":"function","name":"getDigest","inputs":[{"name":"commit","type":"bytes32","internalType":"bytes32"},{"name":"nonce","type":"uint256","internalType":"uint256"}],"outputs":[{"name":"digest","type":"bytes32","internalType":"bytes32"}],"stateMutability":"view"},{"type":"function","name":"sponsorCall","inputs":[{"name":"authority","type":"address","internalType":"address"},{"name":"commit","type":"bytes32","internalType":"bytes32"},{"name":"v","type":"uint8","internalType":"uint8"},{"name":"r","type":"bytes32","internalType":"bytes32"},{"name":"s","type":"bytes32","internalType":"bytes32"},{"name":"to","type":"address","internalType":"address"},{"name":"data","type":"bytes","internalType":"bytes"}],"outputs":[{"name":"success","type":"bool","internalType":"bool"}],"stateMutability":"pure"}],"bytecode":{"object":"0x608060405234801561001057600080fd5b506103c0806100206000396000f3fe608060405234801561001057600080fd5b50600436106100365760003560e01c80635bc928a71461003b578063d089105b146100a7575b600080fd5b610094610049366004610259565b604051600160fa1b6020820152466021820152604181018290523060618201526081810183905260009060a10160405160208183030381529060405280519060200120905092915050565b6040519081526020015b60405180910390f35b6100ba6100b5366004610297565b6100ca565b604051901515815260200161009e565b60006100d989898989896101b6565b6101215760405162461bcd60e51b8152602060048201526014602482015273105d5d1a1bdc9a5e985d1a5bdb8819985a5b195960621b60448201526064015b60405180910390fd5b6101638484848080601f016020809104026020016040519081016040528093929190818152602001838380828437600092018290525092508291506102169050565b9050806101aa5760405162461bcd60e51b815260206004820152601560248201527410d85b1b08195e1958dd5d1a5bdb8819985a5b1959605a1b6044820152606401610118565b98975050505050505050565b6000806101c285610230565b60405160f89190911b6001600160f81b0319166020820152602181018590526041810184905260618101879052608101604051602081830303815290604052905080516020820188f6979650505050505050565b60008060008551602087016000878a88f795945050505050565b6000602382106001811461024c57600260238403069150610253565b601c831491505b50919050565b6000806040838503121561026c57600080fd5b50508035926020909101359150565b80356001600160a01b038116811461029257600080fd5b919050565b60008060008060008060008060e0898b0312156102b357600080fd5b6102bc8961027b565b975060208901359650604089013560ff811681146102d957600080fd5b955060608901359450608089013593506102f560a08a0161027b565b925060c089013567ffffffffffffffff8082111561031257600080fd5b818b0191508b601f83011261032657600080fd5b81358181111561033557600080fd5b8c602082850101111561034757600080fd5b602083019450809350505050929598509295989093965056fea2646970667358221220222c2353e0b332a6b5b3ee862ec65af98fa949445da6adc77a7874b07f637a1364736f6c63782c302e382e32342d646576656c6f702e323032342e342e32332b636f6d6d69742e63336166303263322e6d6f64005d","linkReferences":{}},"methodIdentifiers":{"getDigest(bytes32,uint256)":"5bc928a7","sponsorCall(address,bytes32,uint8,bytes32,bytes32,address,bytes)":"d089105b"},"id":1}