{"abi":[{"type":"function","name":"authCallSimple","inputs":[{"name":"to","type":"address","internalType":"address"},{"name":"data","type":"bytes","internalType":"bytes"},{"name":"value","type":"uint256","internalType":"uint256"},{"name":"gasLimit","type":"uint256","internalType":"uint256"}],"outputs":[{"name":"success","type":"bool","internalType":"bool"}],"stateMutability":"pure"},{"type":"function","name":"authSimple","inputs":[{"name":"authority","type":"address","internalType":"address"},{"name":"commit","type":"bytes32","internalType":"bytes32"},{"name":"v","type":"uint8","internalType":"uint8"},{"name":"r","type":"bytes32","internalType":"bytes32"},{"name":"s","type":"bytes32","internalType":"bytes32"}],"outputs":[{"name":"success","type":"bool","internalType":"bool"}],"stateMutability":"pure"},{"type":"function","name":"getDigest","inputs":[{"name":"commit","type":"bytes32","internalType":"bytes32"}],"outputs":[{"name":"digest","type":"bytes32","internalType":"bytes32"}],"stateMutability":"view"}],"bytecode":{"object":"0x608060405234801561001057600080fd5b50610356806100206000396000f3fe608060405234801561001057600080fd5b50600436106100415760003560e01c80639903840814610046578063e25215911461006e578063f9613ab214610081575b600080fd5b6100596100543660046101b5565b6100e0565b60405190151581526020015b60405180910390f35b61005961007c366004610287565b6100fa565b6100d261008f3660046102dd565b604051600160fa1b602082015246602182015230604182015260618101829052600090608101604051602081830303815290604052805190602001209050919050565b604051908152602001610065565b60008060008551602087016000878a88f795945050505050565b6000806101068561015a565b60405160f89190911b6001600160f81b0319166020820152602181018590526041810184905260618101879052608101604051602081830303815290604052905080516020820188f6979650505050505050565b600060238210600181146101765760026023840306915061017d565b601c831491505b50919050565b80356001600160a01b038116811461019a57600080fd5b919050565b634e487b7160e01b600052604160045260246000fd5b600080600080608085870312156101cb57600080fd5b6101d485610183565b9350602085013567ffffffffffffffff808211156101f157600080fd5b818701915087601f83011261020557600080fd5b8135818111156102175761021761019f565b604051601f8201601f19908116603f0116810190838211818310171561023f5761023f61019f565b816040528281528a602084870101111561025857600080fd5b826020860160208301376000928101602001929092525095989597505050506040840135936060013592915050565b600080600080600060a0868803121561029f57600080fd5b6102a886610183565b945060208601359350604086013560ff811681146102c557600080fd5b94979396509394606081013594506080013592915050565b6000602082840312156102ef57600080fd5b503591905056fea26469706673582212209ac4b3bdad9fa3346af27fc0608dcd2a8ff102871c4daab7e49bfb384a0238fb64736f6c63782c302e382e32342d646576656c6f702e323032342e332e31302b636f6d6d69742e63336166303263322e6d6f64005d","linkReferences":{}},"methodIdentifiers":{"authCallSimple(address,bytes,uint256,uint256)":"99038408","authSimple(address,bytes32,uint8,bytes32,bytes32)":"e2521591","getDigest(bytes32)":"f9613ab2"},"id":0}