{"abi":[{"type":"function","name":"call","inputs":[{"name":"_input","type":"bytes","internalType":"bytes"}],"outputs":[{"name":"_output","type":"bytes","internalType":"bytes"}],"stateMutability":"nonpayable"}],"bytecode":{"object":"0x608060405234801561001057600080fd5b50610204806100206000396000f3fe608060405234801561001057600080fd5b506004361061002b5760003560e01c80635a6535fc14610030575b600080fd5b61004361003e3660046100d8565b610059565b604051610050919061014a565b60405180910390f35b60606000600b9050600080826001600160a01b0316868660405161007e929190610199565b6000604051808303816000865af19150503d80600081146100bb576040519150601f19603f3d011682016040523d82523d6000602084013e6100c0565b606091505b5091509150816100cf57600080fd5b95945050505050565b600080602083850312156100eb57600080fd5b823567ffffffffffffffff8082111561010357600080fd5b818501915085601f83011261011757600080fd5b81358181111561012657600080fd5b86602082850101111561013857600080fd5b60209290920196919550909350505050565b60006020808352835180602085015260005b818110156101785785810183015185820160400152820161015c565b506000604082860101526040601f19601f8301168501019250505092915050565b818382376000910190815291905056fea2646970667358221220dc977fc6dae74b1c1dfcbaaa9cac7d5cdd7107eeb45340910036ef426737fbf764736f6c637827302e382e32342d646576656c6f702e323032342e352e332b636f6d6d69742e31383761313738610058","linkReferences":{}},"methodIdentifiers":{"call(bytes)":"5a6535fc"},"id":0}